:100000000C942E0E0C94560E0C94560E0C94560E08
:100010000C94560E0C94560E0C94560E0C94560ED0
:100020000C94560E0C94560E0C94560E0C94560EC0
:100030000C94560E0C94560E0C94560E0C94560EB0
:100040000C94EF170C94560E0C945F180C943918FE
:100050000C94560E0C94560E0C94560E0C94560E90
:100060000C94560E0C94560EFFE0FFD1AFFF32FFFA
:10007000D0FFFEFFE0FFD1AEFFD0FFFEFFE0FFD1DB
:100080001000FFFEFFD0FFE0FFC1FFD1AED580A87A
:100090003FD300408D142000A1C8DA1281CFD9F1DE
:1000A000DB402EA4A6AFFFD0FFFE0000000024001E
:1000B00027002A0000000000250028002B00000077
:1000C000000023002600290004040404040404049E
:1000D00002020202020203030303030301020408F3
:1000E00010204080010204081020010204081020A2
:1000F00000000008000201000003040700000000E7
:100100000000000000101000FE0A06A7089500FF7E
:10011000FE0EFE0BFE1010201000FEAAAA000180A9
:1001200000000180004A51EA505A51C99E000180E6
:1001300000000180000001800055551010201000C3
:10014000FEAAAA00018000000180003993C2523249
:100150005F8A527193800000018000000180005589
:10016000551010201000FEAAAA0001800000018096
:10017000003BA5C12431198924712580000001802C
:10018000000001800055551010201000FEAAAA00A2
:10019000018000000180007BA5C1247919C1247968
:1001A00025800000018000000180005555101020BE
:1001B0001000FEAAAA000180000001800079BFC2E1
:1001C000487A49C248798980000001800000018096
:1001D0000055551010201000FEAAAA000180000052
:1001E0000180007A4DC2527B53C2D67A4F80000004
:1001F0000180000001800055551010201000FEAA5B
:10020000AA000180000001800031A5CA287A31CA05
:100210002849A5800000018000000180005555108C
:1002200010201000FEAAAA000180000001800073C7
:10023000D1CA1073D1CA1073DF80000001800000A2
:1002400001800055551010201000FEAAAA00018060
:1002500000000180001E3991401E3191081E7180FE
:100260000000018000000180005555101020100092
:10027000FEAAAA000180000001800022F9A2203E0F
:1002800021A2202221800000018000000180005571
:10029000551010201000FEAAAA0001800000018065
:1002A0000020F9A08020F9A0803E8180000001801C
:1002B000000001800055551010201000FEAAAA0071
:1002C0000180000001800022F9A220222194200850
:1002D0002180000001800000018000555510102091
:1002E0001000FEAAAA00018000000180003EF9A0D3
:1002F000803EF9A080208180000001800000018004
:100300000055551010201000FEAAAA000180000020
:100310000180001EF1A08820F1A0901E89800000BD
:100320000180000001800055551010201000FEAA29
:10033000AA00018000000180001E71A0881C898233
:10034000883C71800000018000000180005555103C
:1003500010201000FEAAAA00018000000180001EEB
:10036000F9A0201C2182203CF980000001800000BF
:1003700001800055551010201000FEAAAA0001802F
:100380000000018000391DA510251DA51039DD8054
:100390000000018000000180005555101020100061
:1003A000FEAAAA00018000000180007189CA184AD3
:1003B00009CA08719D80000001800000018000557D
:1003C000551010201000FEAAAA0001800000018034
:1003D000007199CA044A09CA10719D800000018009
:1003E000000001800055551010201000FEAAAA0040
:1003F000018000000180007199CA044A19CA047181
:1004000099800000018000000180005555101020E7
:100410001000FEAAAA00018000000180007185CAB8
:100420000C4A15CA1C718580000001800000018003
:100430000055551010201000FEAAAA0001800000EF
:100440000180004993EA546A59DBD44A5380000082
:100450000180000001800055551010201000FEAAF8
:10046000AA00018000000180003453C29A3117892C
:1004700012711380000001800000018000555510AA
:1004800010201000FEAAAA00018000000180007B5D
:10049000B9C1247939C12479398000000180000074
:1004A00001800055551010201000FEAAAA000180FE
:1004B00000000180003325C4B447ADC4A434A58036
:1004C0000000018000000180005555101020100030
:1004D000FEAAAA00018000000180003E89A0D83E4B
:1004E000A9A0883E8980000001800000018000559D
:1004F000551010201000FEAAAA0001800000018003
:10050000003A5DC252325D8A52719D8000000180C6
:10051000000001800055551010201000FEAAAA000E
:100520000180000001800079CFC2107991C0507B1A
:100530008F800000018000000180005555101020C0
:100540001000FEAAAA00018000000180001E719028
:10055000801E61901010E180000001800000018089
:100560000055551010201000FEAAAA0001800000BE
:100570000180000E719080166192100EE1800000E3
:100580000180000001800055551010201000FEAAC7
:10059000AA00018000000180001C7192801C6194FF
:1005A0001012E1800000018000000180005555100C
:1005B00010201000FEAAAA00018000000180001295
:1005C000719280126192100CE180000001800000A5
:1005D000018000555500000008000E010A0A0804B9
:1005E0000080808080808080008080050404080274
:1005F0000888888888060A0A080100242424FC4800
:1006000048FC909090070A0A080100107C929070B4
:100610001C12927C10070A0A080100629494681068
:10062000102C52528C070A0A080100384444283022
:10063000528A848C7201040408040880808080033C
:100640000C0C0803FF204040808080808080404068
:1006500020030C0C0802FF80404020202020202096
:100660004040800707070801011092543854921047
:10067000070707080101101010FE101010020404F3
:100680000803FEC0404080040101080204F0020299
:1006900002080300C0C0060A0A080100040408108A
:1006A000102020408080060A0A0801003048848417
:1006B000848484844830050A0A0802002060A0204F
:1006C0002020202020F8060A0A08010078848404EB
:1006D0001820408080FC060A0A08010078848404FF
:1006E000380404848478060A0A0801000818284897
:1006F0008888FC080808060A0A080100FC80808037
:10070000F80404048478060A0A080100384080804E
:10071000F88484848478060A0A080100FC0404082A
:10072000080810101010060A0A0801007884848452
:10073000788484848478060A0A0801007884848492
:100740007C0404040870020707080301C0C000000D
:1007500000C0C00209090803FFC0C0000000C0407B
:100760004080050909080200081020408040201040
:1007700008060505080102FC000000FC050909083F
:100780000100804020100810204080060A0A08015D
:100790000078848404081010001010060A0A08016A
:1007A00000384494ACA4A4A49C403C060A0A080166
:1007B000003048488484FC84848484060A0A080142
:1007C00000F8848484F884848484F8060A0A080182
:1007D0000078848480808080848478060A0A0801F6
:1007E00000F08884848484848488F0060A0A0801DE
:1007F00000FC808080F880808080FC060A0A080166
:1008000000FC808080F88080808080060A0A0801D1
:100810000078848480809C84848C74060A0A080191
:100820000084848484FC8484848484050A0A080205
:1008300000F82020202020202020F8070A0A0801A4
:10084000003E080808080808888870060A0A080197
:1008500000848890A0C0C0A0908884060A0A08017D
:1008600000808080808080808080FC060A0A0801E9
:10087000008484CCCCB4B484848484060A0A08013D
:100880000084C4C4A4A494948C8C84060A0A08012D
:100890000078848484848484848478060A0A080125
:1008A00000F8848484F88080808080070B0B080126
:1008B000FF78848484848484B4CC7806060A0A0889
:1008C0000100F8848484F89088888484060A0A08E1
:1008D000010078848480601804848478070A0A08F8
:1008E0000100FE101010101010101010060A0A0857
:1008F000010084848484848484848478070A0A08B8
:10090000010082828244444428281010060A0A0802
:10091000010084848484B4B4CCCC8484060A0A089C
:10092000010084844848303048488484070A0A0813
:10093000010082824444281010101010060A0A0890
:100940000100FC0404081020408080FC030C0C080B
:1009500004FFE080808080808080808080E0060AC4
:100960000A08010080804020201010080404030CB5
:100970000C0801FFE020202020202020202020E063
:100980000603030801093048840701010801FFFE3E
:1009900003030308020A80402006080808010078C3
:1009A00084047C84848C74060B0B08010080808096
:1009B000B8C484848484C4B8060808080100788414
:1009C000808080808478060B0B0801000404047486
:1009D0008C848484848C74060808080100788484DC
:1009E000FC80808478050B0B08010018202020F87B
:1009F000202020202020060B0B0801FE047488888C
:100A000088704078848478060B0B08010080808011
:100A1000B8C4848484848484050B0B0802002020DD
:100A20000060202020202020F8050D0D0801FE0880
:100A3000080018080808080808089060060B0B084A
:100A400001008080808890A0C0A0908884050B0B56
:100A500008020060202020202020202020F8070805
:100A600008080100EC92929292929292060808086D
:100A70000100B8C4848484848484060808080100C2
:100A80007884848484848478060A0A0801FEB8C4C1
:100A900084848484C4B88080060A0A0801FE748CA9
:100AA000848484848C740404060808080100B8C493
:100AB0008480808080800608080801007884806037
:100AC00018048478050A0A080100202020F8202054
:100AD0002020201806080808010084848484848467
:100AE0008C74060808080100848484484848303023
:100AF000070808080100829292929292926C06086E
:100B0000080801008484483030488484060A0A08B2
:100B100001FE84848484844C340404780608080824
:100B20000100FC040810204080FC030C0C0803FFAB
:100B3000608080404080804040808060010E0E08D0
:100B400004FE8080808080808080808080808080A3
:100B5000030C0C0802FFC020204040202040402011
:100B600020C007030308010862928C1010201000B7
:100B7000FEAAAA000180000001800073D1CA104BB8
:100B8000D1CA1073DF800000018000000180005591
:100B9000551010201000FEAAAA000180000001805C
:100BA00000719DCA5273D3C252425D800000018021
:100BB000000001800055551010201000FEAAAA0068
:100BC00001800000018000499DCA527A5DCA5049E7
:100BD0009180000001800000018000555510102018
:100BE0001000FEAAAA00018000000180007393CAD1
:100BF00052739FCA127213800000018000000180AE
:100C00000055551010201000FEAAAA000180000017
:100C10000180004B93EA525B9FCA524B93800000C5
:100C20000180000001800055551010201000FEAA20
:100C3000AA000180000001800074B9A6A425A5A423
:100C4000A474B98000000180000001800055551097
:100C500010201000FEAAAA00018000000180004BB5
:100C6000D1EA105BD1CA104BDF8000000180000088
:100C700001800055551010201000FEAAAA00018026
:100C8000000001800039CDC212319F8852739380D9
:100C90000000018000000180005555101020100058
:100CA000FEAAAA000180000001800079CDC212795D
:100CB0009FC0527B9380000001800000018000559E
:100CC000551010201000FEAAAA000180000001802B
:100CD000004B9DC9207919C9044939800000018061
:100CE000000001800055551010201000FEAAAA0037
:100CF0000180000001800025DDA4843C85A48424BB
:100D000099800000018000000180005555101020DE
:100D10001000FEAAAA000180000001800045CDC499
:100D2000904489A88410998000000180000001800F
:100D30000055551010201000FEAAAA0001800000E6
:100D4000018000721DCA127213C21243DD800000BE
:100D50000180000001800055551010201000FEAAEF
:100D6000AA00018000000180007213CA127213C22F
:100D70001243CD8000000180000001800055551015
:100D800010201000FEAAAA00018000000180000EC1
:100D90002189200E218A2009218000000180000085
:100DA00001800055551010201000FEAAAA000180F5
:100DB000000001800039DDC202318D8850739F80B0
:100DC0000000018000000180005555101020100027
:100DD000FEAAAA000180000001800039DDC20231B4
:100DE0008D8842739D8000000180000001800055C5
:100DF000551010201000FEAAAA00018000000180FA
:100E00000071CFCA104A0DCA0271DD800000018056
:100E1000000001800055551010201000FEAAAA0005
:100E2000018000000180007245CA4C7245C24441F5
:100E30008F800000018000000180005555101020B7
:100E40001000FEAAAA0001800000018000725DCAA5
:100E500042724DC250419F8000000180000001801D
:100E60000055551010201000FEAAAA0001800000B5
:100E70000180003B9DC12031198904713980000037
:100E80000180000001800055551010201000FEAABE
:100E9000AA000180000001800039D3C212421FC2A3
:100EA0001239D380000001800000018000555510E8
:100EB00010201000FEAAAA0001800000018000227C
:100EC00089B6882AA9A2D822898000000180000062
:100ED00001800055551010201000FEAAAA000180C4
:100EE00000000180003B8DC252339F8A1272138032
:100EF00000000180000001800055551010201000F6
:100F0000FEAAAA00018000000180007B8DC2527BF6
:100F10009FC2127A138000000180000001800055FA
:100F2000551010201000FEAAAA00018000000180C8
:100F300000398FC250324D8A42719D80000001807D
:100F4000000001800055551010201000FEAAAA00D4
:100F500001800000018000339BC42225A394A2637A
:100F60009B8000000180000001800055551010207A
:100F70001000FEAAAA000180000001800039DDC235
:100F80000832098A0871DD800000018000000180BC
:100F90000055551010201000FEAAAA000180000084
:100FA00001800039DDC2084189C0483B9D800000B6
:100FB0000180000001800055551010201000FEAA8D
:100FC000AA00018000000180000EF990200C21820F
:100FD000201C218000000180000001800055551078
:100FE00010201000FEAAAA0001800000018000313C
:100FF000CFCA104991C850338F8000000180000093
:1010000001800055551010201000FEAAAA00018092
:1010100000000180001C8992D81CA990881089804A
:1010200000000180000001800055551010201000C4
:10103000FEAAAA0001800000018000338FCA507B05
:1010400091CA104A0F800000018000000180005505
:101050005500000008000E010A0A08040080800004
:1010600080808080808080070A0A08010010107C40
:10107000929090927C1010070A0A0801001C202010
:1010800020F82020207CC206080808010184487846
:101090004848784884070A0A08010082442810FE5C
:1010A00010FE101010010A0A0804008080808000E1
:1010B0000080808080060A0A080100788480788495
:1010C000847804847804020208020C9090080A0ACA
:1010D0000800003C4299A5A1A1A599423C0507073B
:1010E000080205700878887800F8060909080100E8
:1010F000242448489048482424060404080100FC9D
:101100000404041010201000FEAAAA000180003A76
:1011100063C25433C98A48724980000001800003C9
:10112000C18000000180005555080A0A0800003CF3
:1011300042B9A5A5B9A9A5423C06010108010BFCCD
:1011400003040408020A40A0A0400709090801019D
:10115000101010FE10101000FE05070708020570A1
:101160008808708080F805070708020570880870F5
:1011700008887003030308030A204080080A0A084D
:1011800000FE42424242424266594080060C0C0830
:1011900001FF7CF4F4F4F47414141414141C02020B
:1011A00002080304C0C00302020802FE20C00307B5
:1011B000070802052060A02020202005070708025C
:1011C00005708888887000F8060909080100909069
:1011D00048482448489090060A0A08010044C44838
:1011E0005050242C549C84060A0A08010044C44828
:1011F0005050283444889C060A0A080100C4244838
:1012000030D0242C549C84060A0A080100101000D7
:1012100010106084848478060E0E080100601800A7
:10122000003048488484FC84848484060E0E0801BF
:1012300000186000003048488484FC84848484065C
:101240000E0E080100304800003048488484FC84B9
:10125000848484060E0E080100649800003048481B
:101260008484FC84848484060E0E080100484800AF
:10127000003048488484FC84848484060E0E08016F
:1012800000304830003048488484FC8484848407DB
:101290000A0A0801003E509090FE909090909E06A1
:1012A0000C0C0801FE78848480808080848478100F
:1012B00060060E0E08010060180000FC808080F8B7
:1012C00080808080FC060E0E08010018600000FC83
:1012D000808080F880808080FC060E0E080100303F
:1012E000480000FC808080F880808080FC060E0E24
:1012F00008010048480000FC808080F880808080E1
:10130000FC050E0E08020060180000F820202020C6
:1013100020202020F8050E0E08020030C00000F842
:101320002020202020202020F8050E0E080200603A
:10133000900000F82020202020202020F8050E0E0C
:1013400008020090900000F820202020202020207B
:10135000F8070A0A08000078444242F24242424436
:1013600078060E0E0801006498000084C4C4A4A48A
:1013700094948C8C84060E0E08010060180000788E
:10138000848484848484848478060E0E0801001882
:1013900060000078848484848484848478060E0EBB
:1013A0000801003048000078848484848484848424
:1013B00078060E0E08010064980000788484848406
:1013C0008484848478060E0E080100484800007862
:1013D00084848484848484847806050508010284D6
:1013E00048304884060C0C0801FF0474888C9494DF
:1013F000A4A4C444B880060E0E08010060180000C2
:1014000084848484848484848478060E0E08010095
:101410001860000084848484848484848478060E24
:101420000E0801003048000084848484848484840D
:101430008478060E0E0801004848000084848484E5
:10144000848484848478070E0E08010018600000EC
:1014500082824444281010101010060B0B08010063
:101460008080F088848488F0808080060A0A0801E1
:101470000070888890B0888484A498060C0C0801B9
:1014800000601800007884047C84848C74060C0C42
:10149000080100186000007884047C84848C740641
:1014A0000C0C080100304800007884047C84848C93
:1014B00074060C0C080100649800007884047C8495
:1014C000848C74060C0C08010048480000788404E1
:1014D0007C84848C74060D0D0801003048300000B7
:1014E0007884047C84848C740708080801007C924A
:1014F000127E9090927C060A0A0801FE7884808011
:10150000808084781060060C0C08010060180000D0
:10151000788484FC80808478060C0C0801001860B4
:101520000000788484FC80808478060C0C0801001C
:1015300030480000788484FC80808478060C0C0895
:10154000010048480000788484FC80808478050C81
:101550000C080200C030000060202020202020F86D
:10156000050C0C08020030C0000060202020202064
:1015700020F8050C0C08020060900000602020207C
:10158000202020F8050C0C0802009090000060203C
:101590002020202020F8060C0C08010064182844A4
:1015A000047C848484848478060C0C08010064988C
:1015B0000000B8C4848484848484060C0C08010070
:1015C000601800007884848484848478060C0C0875
:1015D0000100186000007884848484848478060C78
:1015E0000C08010030480000788484848484847866
:1015F000060C0C08010064980000788484848484BC
:101600008478060C0C080100484800007884848423
:1016100084848478060707080101300000FC00007C
:1016200030060A0A0801FF04788C9494A4A4C478B4
:1016300080060C0C080100601800008484848484F7
:10164000848C74060C0C08010018600000848484EB
:101650008484848C74060C0C0801003048000084DB
:1016600084848484848C74060C0C0801004848002F
:10167000008484848484848C74060E0E0801FE1811
:1016800060000084848484844C34040478050C0C49
:101690000802FE8080F088888890A0C08080800644
:1016A0000E0E0801FE4848000084848484844C3473
:1016B000040478004140FCF323000000002A3A00B3
:1016C00024FA23001313391F0610060C001E0F0006
:1016D0000F1E000F1E00071C0003B80001B000C160
:1016E000F060FFFFE0FFFFE0F8E3E001F00003B887
:1016F0000007BC00071C000F1E001E0F000E0E008E
:101700000208001D1D74310A0000070000000700D8
:1017100000000700000007000000070000000700AD
:10172000000007000000070000000700000007009D
:1017300000000700000007000000070000FFFFFF97
:10174000F8FFFFFFF8FFFFFFF800070000000700A9
:10175000000007000000070000000700000007006D
:10176000000007000000070000000700000007005D
:1017700000000700000007000000070000090C1827
:101780000D02FA1F801F001F003E003E003E003C7D
:10179000007C00780078007000F0000C0408100253
:1017A0000AFFF0FFF0FFF0FFF00506060D0500F858
:1017B000F8F8F8F8F80F274E1302FD000E001E008F
:1017C0001C001C003C0038003800780070007000DD
:1017D0007000F000E000E001E001C001C001C003C2
:1017E000C0038003800780070007000F000F000E72
:1017F000000E001E001C001C003C003800380038A1
:1018000000780070007000F0001623691B020103CD
:10181000FF0007FF801FFFE01FFFE03E03F03E01D7
:10182000F07C00F87800F8780078F80078F8007C10
:10183000F8007CF8007CF8007CF8007CF8007CF86C
:10184000007CF8007CF8007CF8007CF8007CF80054
:101850007CF8007CF8007C78007C78007878007850
:101860007C00F83C00F83E01F03F03F01FFFE00F62
:10187000FFC007FF8001FF000C23461B070003F099
:1018800007F00FF01FF07FF0FFF0FDF0F1F0C1F076
:1018900001F001F001F001F001F001F001F001F0C0
:1018A00001F001F001F001F001F001F001F001F0B0
:1018B00001F001F001F001F001F001F001F001F0A0
:1018C00001F001F01523691B030103FF000FFF80E6
:1018D0001FFFC03FFFE03F01F07E00F07C00F87C7E
:1018E00000F87C00F87C00F80000F80000F8000028
:1018F000F00001F00003E00007E00007C0000F80E7
:10190000001F80003F00007E0000FC0001F8000383
:10191000F00007E0000FC0001FC0001F80003F0064
:10192000007E0000FC0000FFFFF8FFFFF8FFFFF85B
:10193000FFFFF81623691B020103FF000FFFC01F02
:10194000FFE01FFFF03F01F83E00F87C00787C00CC
:10195000787C007C0000780000780000F80001F03E
:10196000000FE000FFC000FF0000FF8000FFC0008C
:101970000FE00001F00000F80000F800007C00001B
:101980007C00007CF8007CF8007CFC007CFC00788B
:101990007C00F87F03F83FFFF01FFFE00FFFC0035C
:1019A000FF001823691B01000003F00007F0000787
:1019B000F0000FF0001FF0003FF0003DF00079F064
:1019C00000F9F000F1F001E1F003E1F003C1F007EC
:1019D00081F00F81F00F01F01E01F03E01F03C019B
:1019E000F07801F0F801F0F001F0FFFFFFFFFFFFDA
:1019F000FFFFFFFFFFFF0001F00001F00001F0001A
:101A000001F00001F00001F00001F00001F0000120
:101A1000F01523691B03007FFFE07FFFE07FFFE0FD
:101A20007FFFE07C00007C00007C00007C00007CEC
:101A300000007C00007C00007C00007CFE007DFF3C
:101A4000807FFFC07F83E07E01F07C00F07800F8AB
:101A500078007800007800007800007800007800B6
:101A60000078000078F80078F800F8F800F0F80145
:101A7000F07E03E03FFFE03FFFC00FFF8007FE0066
:101A80001723691B020101FF8007FFC00FFFE01F42
:101A9000C1F01F00F83E00F83E00787C00787C0022
:101AA00000780000780000780000780000787F005F
:101AB00078FFC0F9FFF0FBFFF0FF83F8FE00F8FCB1
:101AC000007CFC007CF8003CF8003CF8003CF8008E
:101AD0003EF8003CF8003C78003C7C007C7C0078C0
:101AE0003F01F81FFFF00FFFE007FFC001FF0015E7
:101AF00023691B0300FFFFF8FFFFF8FFFFF8FFFF5C
:101B0000F80000780000F80000F00001F00001F09B
:101B10000001E00003E00003E00007C00007C00090
:101B20000780000F80000F80000F00001F00001FC3
:101B300000003E00003E00003E00007C00007C00F3
:101B400000F80000F80000F80001F00001F00003C8
:101B5000F00003E00003E00007C00007C000162308
:101B6000691B020103FF800FFFE01FFFF03FFFF83A
:101B70003F01F87E00FC7C007C7C007C7C007C7C4F
:101B8000007C7C007C3C00783E00F81F83F00FFF57
:101B9000E003FF8007FF800FFFE01F03F03E00F827
:101BA0007C007878007CF8003CF8003CF8003CF8B9
:101BB000003CF8003CF8003CF8007C7C007C7E0196
:101BC000F83FFFF81FFFF00FFFE003FF80162369C7
:101BD0001B020103FF800FFFC01FFFE03FFFF07EED
:101BE00001F87C00F87800F8F8007CF8007CF80038
:101BF0007CF8007CF8007CF8007CF8007CF800FCA5
:101C00007800FC7C01FC7F03FC3FFFFC1FFF7C0F86
:101C1000FE7C03F87C00007C00007C000078000063
:101C2000780000F87800F87801F07C01F03E03E0DD
:101C30003FFFE01FFFC00FFF8007FE000518180DD3
:101C40000500F8F8F8F8F8F80000000000000000BF
:101C500000000000F8F8F8F8F8F8911811241FBEF9
:101C6000CFEFD8E0DEBFCDBF12E0A0E0B1E0E6EC00
:101C7000F0E402C005900D92A231B107D9F723E03C
:101C8000A2E1B2E001C01D92A939B207E1F71EE05E
:101C9000CEE2DEE004C02197FE010E942A1FCD3271
:101CA000D107C9F70E9447190C9461200C940000D9
:101CB000089580E0089580916003909161030097FA
:101CC00039F120917303FC01211123C03596E49171
:101CD000E0937403FC013C96E491E09375038091DA
:101CE0007403082E000C990B20917503821B910937
:101CF00027FD939520917603203441F0829FC00107
:101D0000112426E0969587952A95E1F7809377032D
:101D10000895213039F43F96E491E0937403FC0177
:101D20007096DACF3D96E491E0937403FC013E9601
:101D3000D3CF80916703803331F48FEF80937C039E
:101D400080937D030895883231F0823031F081E054
:101D500080937C0308958FEFFBCF83E0F9CF83302E
:101D600081F028F4813099F08230A9F0089587300D
:101D7000A9F08830C9F08430B1F4809180008F7D63
:101D800003C0809180008F7780938000089584B590
:101D90008F7784BD089584B58F7DFBCF8091B0008F
:101DA0008F778093B00008958091B0008F7DF9CF38
:101DB000CF93DF93282F30E0F901E051FF4F84915A
:101DC000F901E452FF4FD491F901E853FF4FC49158
:101DD000CC23A1F081110E94AF0EEC2FF0E0EE0FAA
:101DE000FF1FE254FF4FA591B491EC91ED2381E0E8
:101DF00090E009F480E0DF91CF91089580E090E0D9
:101E0000FACF1F93CF93DF93282F30E0F901E051F1
:101E1000FF4F8491F901E452FF4FD491F901E85347
:101E2000FF4FC491CC23A9F0162F81110E94AF0E51
:101E3000EC2FF0E0EE0FFF1FEC54FF4FA591B49193
:101E40008FB7F894EC91111108C0D095DE23DC9384
:101E50008FBFDF91CF911F910895DE2BF8CFCF92E6
:101E6000DF92EF92FF921F93CF93DF9310E0C7E0D2
:101E7000D0E083E2E82EF12CCC24C394D12C60E096
:101E8000809196030E94010FC7010197F1F780919D
:101E900097030E94D80E892B39F0C6010C2E01C081
:101EA000880F0A94EAF7182B61E0809196030E944C
:101EB000010FC7010197F1F7219708F7812FDF91F3
:101EC000CF911F91FF90EF90DF90CF900895CF9327
:101ED000DF9390E0FC01E452FF4F249188539F4F21
:101EE000FC0184918823C9F090E0880F991FFC01C0
:101EF000E655FF4FA591B491FC01EC54FF4FC591FD
:101F0000D49161110DC09FB7F8948C9120958223D4
:101F10008C938881282328839FBFDF91CF910895D8
:101F2000623051F49FB7F8943C91822F80958323BF
:101F30008C93E8812E2BEFCF8FB7F894EC912E2B5A
:101F40002C938FBFEACF3FB7F8948091B502909160
:101F5000B602A091B702B091B80226B5A89B05C001
:101F60002F3F19F00196A11DB11D3FBFBA2FA92F18
:101F7000982F8827BC01CD01620F711D811D911D15
:101F800042E0660F771F881F991F4A95D1F7089581
:101F90002FB7F8946091B1027091B2028091B302B0
:101FA0009091B4022FBF0895AF92BF92CF92DF926B
:101FB000EF92FF920F931F93CF93DF936C017B01FE
:101FC0008B01040F151FEB015E01AE18BF08C0178F
:101FD000D10759F06991D601ED91FC910190F08102
:101FE000E02DC6010995892B79F7C501DF91CF91C5
:101FF0001F910F91FF90EF90DF90CF90BF90AF9027
:102000000895FC01538D448D252F30E0842F90E0FE
:10201000821B930B541710F0CF96089501970895E3
:10202000FC01918D828D981761F0A28DAE0FBF2FAC
:10203000B11D5D968C91928D9F5F9F73928F90E002
:1020400008958FEF9FEF0895FC01918D828D981771
:1020500031F0828DE80FF11D858D90E008958FEFAE
:102060009FEF0895FC01918D228D892F90E0805C77
:102070009F4F821B91098F73992708958BEB92E0F4
:102080000E94321021E0892B09F420E0822F08956C
:1020900080E090E0892B29F00E943E1081110C9481
:1020A00000000895FC01A48DA80FB92FB11DA35AFB
:1020B000BF4F2C91848D90E001968F739927848F68
:1020C000A689B7892C93A089B1898C91837080648B
:1020D0008C93938D848D981306C00288F389E02D2C
:1020E00080818F7D80830895EF92FF920F931F93DD
:1020F000CF93DF93EC0181E0888F9B8D8C8D9813BB
:102100001AC0E889F989808185FF15C09FB7F894C6
:10211000EE89FF896083E889F98980818370806412
:1021200080839FBF81E090E0DF91CF911F910F915D
:10213000FF90EF900895F62E0B8D10E00F5F1F4F6C
:102140000F731127E02E8C8D8E110CC00FB607FC7B
:10215000FACFE889F989808185FFF5CFCE010E9409
:102160005210F1CFEB8DEC0FFD2FF11DE35AFF4F15
:10217000F0829FB7F8940B8FEA89FB898081806297
:10218000CFCFCF93DF93EC01888D8823B9F0AA8954
:10219000BB89E889F9898C9185FD03C0808186FD22
:1021A0000DC00FB607FCF7CF8C9185FFF2CF808171
:1021B00085FFEDCFCE010E945210E9CFDF91CF9184
:1021C0000895FC0180819281980F9283218192175A
:1021D00060F494819F5F94839381890F821710F03C
:1021E0008FEF820F838381E0089580E00895FC01E2
:1021F0001282808181508383148208952EE93FE00A
:10220000009709F40895F9013197F1F70197F8CF94
:10221000CF93DF9300D0CDB7DEB720ED37E03A8320
:1022200029839091BC00982311F081E00FC029818F
:102230003A81232B81F48091BA0281FDF6CF8091FF
:10224000B90281110DC091E09093B9020F900F90E7
:10225000DF91CF91089529813A8121503109DFCF53
:1022600080E0F4CF84EA8093BC0061E080E80E94C3
:102270000811811102C080E008958091B900887F23
:10228000883051F0803141F08091B9028111F3CF53
:1022900082E08093B902EFCF88E78093BB0084E8A7
:1022A0008093BC0062E080E80E940811882319F343
:1022B0008091BA0281FD05C08091B900887F883184
:1022C00019F781E0089584E98093BC0064E080E11F
:1022D0000C9408118093BB0084E88093BC0063E0F9
:1022E00080E80E9408118823A1F08091BA0281FD44
:1022F0000DC08091B900887F883241F08091B90289
:10230000811106C092E09093B902089581E008958A
:1023100080E008951092B90208958093BA02109255
:10232000B90084FF05C08CE08093B8000C948A113A
:1023300088E4FACFCF93DF93FC0123A5222389F011
:10234000EC010E943211811104C080E0DF91CF9135
:1023500008958EA1811107C00E946A118823A9F3F4
:102360001BA681E0F3CF80E4F7CF0F931F93CF93A9
:10237000DF93C62FD42F8901633001F138F4613027
:1023800099F0623009F449C0C1E012C0663029F109
:10239000673091F16530C1F70E949A11811117C021
:1023A0000E946311C0E004C0FC0186A50E948D114B
:1023B0008C2FDF91CF911F910F910895FC0116A2F0
:1023C00021E023A74111E0CF0E946311DDCF8D2FC3
:1023D0000E946A118111D8CFE3CF0E949A118823FD
:1023E000F9F2DD2389F2F80181918F010E946A11CF
:1023F0008823B1F2D150F5CF0E949A11882381F23F
:10240000DD2311F2F80184910E946A11C82F8823FC
:1024100079F20F5F1F4FD150F3CFFC0146A321E0AB
:1024200023A7B2CFDB011496ED91FC9130E020E0C0
:1024300065E00994DB011496ED91FC9130E020E019
:1024400062E00994DB011496ED91FC9130E020E00C
:1024500063E00994CF92DF92EF92FF920F931F9364
:10246000CF93DF938C017B016A0180E0F601C49178
:10247000811110C081E0CF3F49F04C2FB701C80156
:102480000E941212882309F444C080E0BFEFCB1AE7
:10249000DB0AECCF4FEFCF3F89F3CE3FD9F1C03FFE
:1024A000A0F7C03E38F04C2F4F70B701C8010E9412
:1024B0001A12EBCFC03D38F04C2F4F70B701C80156
:1024C0000E942212E2CFC03CF8F0D7011496ED91A1
:1024D000FC9130E020E040E064E0C8010995C2953D
:1024E000C07FCE5FD0E0CE010E94FE10D7011496CF
:1024F000ED91FC9130E020E041E064E0C8010995F5
:10250000CE010E94FE10C1CFC7FDBFCF8C2F90E03F
:10251000F8CF80E0DF91CF911F910F91FF90EF9066
:10252000DF90CF9008950F93FC010150040F84A910
:1025300096A9941788F0081710F4041778F421501E
:10254000260F83A995A9961758F0281760F481E003
:10255000261720F40F910895081778F780E0FACF36
:102560002817A8F7FBCF81E0F5CFDC011696ED9197
:10257000FC91179712968C91481B477081E090E070
:1025800001C0880F4A95EAF7E60FF11D308122233A
:1025900019F0832B8083089580958323FBCFFB0163
:1025A0004181DC0112962C911297421768F0139624
:1025B0002C911397241740F0608115962C91621787
:1025C00018F424810C94B5120895DB01ED91FC916F
:1025D00009940F931F93CF93DF931F92CDB7DEB76C
:1025E00000915E0310915F03E0918D03F0918E03E3
:1025F00082E0099530E020E04AE0B8018CE593E004
:102600000E94E512182FE0918D03F0918E0383E074
:102610000995E0918D03F0918E0380E009951123D7
:10262000B9F160915E0370915F039E012F5F3F4F90
:1026300046E48CE593E00E94E512898180935C0377
:1026400060915E0370915F039E012F5F3F4F47E4EF
:102650008CE593E00E94E512898180935D0360918F
:102660005E0370915F0330E020E048E48CE593E086
:102670000E94E5128093670360915E0370915F038F
:102680002FE833E047E18CE593E00E94E51211E08A
:10269000812F0F90DF91CF911F910F9108950F938C
:1026A0001F93CF93DF9300E321E040E060E58CE5EA
:1026B00093E00E9493128823D1F0C0E000E511E07E
:1026C000DFEF60915E0370915F0300937803C09326
:1026D000790310937B03D0937A0328E733E04BE32D
:1026E0008CE593E00E94E512C85FC03351F7DF919B
:1026F000CF911F910F910895EF92FF920F931F9327
:10270000CF93DF93D82F062FC42F182FEE24EA94EF
:10271000F82EF40E60915E0370915F0310937803BE
:102720000093790310927B03E0927A0328E733E069
:102730004BE38CE593E00E94E512185F8F2D811B1F
:10274000883040F7D85F88EF8C0F887F8D0F9C2FE3
:10275000977009F160915E0370915F038093780335
:102760000093790310927B03C195C7708FEF90E0BF
:1027700001C0880FCA95EAF780937A0328E733E00F
:102780004BE38CE593E0DF91CF911F910F91FF9088
:10279000EF900C94E512DF91CF911F910F91FF9074
:1027A000EF9008950F9301E02FE74FE260E08CE592
:1027B00093E00E949312882331F04FE76FE280E0AC
:1027C0000F910C947C130F9108950F931F93CF9347
:1027D000DF93182FC62F042FDEE0D60F402F6C2F6B
:1027E000812F0E947C13CF5FCD13F8CFDF91CF9163
:1027F0001F910F9108950F931F93CF93DF93C82FCD
:10280000D62F142F0EE0242F462F682F8CE593E04F
:102810000E949312882349F0412F6D2F8C2FDF9156
:10282000CF911F910F910C94E513DF91CF911F91E0
:102830000F9108950F931F93CF93E0916A03F09146
:102840006B03309719F08CE593E0099500915E03D6
:1028500010915F03E0918D03F0918E0382E0099562
:10286000E0918D03F0918E0381E0099530E020E046
:1028700045E1B8018CE593E00E94E512C82F88235A
:1028800041F02FE833E047E1B8018CE593E00E9486
:10289000E512E0918D03F0918E0380E009958C2F75
:1028A000CF911F910F9108950B96FC01849108958B
:1028B0000A96FC0184910895FC01849108950E9478
:1028C0005C14882321F0823011F083E0089586E0C3
:1028D0000895FC01E60FF11D849190E0982F882760
:1028E0003196E4918E0F911D089568E00C9469145F
:1028F00066E00C946914AF92BF92CF92DF92FF9280
:102900000F931F93CF93DF936C018B01F42EE9019A
:1029100080E1481709F47EC0841778F1AAE04A17CD
:1029200009F461C0BFE04B1709F47FC0F8010281D0
:102930001381F2E3FF1609F4DDC0FF1508F48EC021
:1029400085E1F81609F4DBC0A7E1FA1609F4ECC03A
:10295000B4E1FB1265C0D8011696ED91FC91179772
:1029600015968C918E0F9F2F911D11928E179F0798
:10297000E1F7C8010E94F71053C0E1E14E1709F4D6
:1029800051C0F5E14F13D2CFFB01A280B3804CE7D9
:1029900050E0C6010E942A12D50114964C91406B5A
:1029A000B801C6010E94121241E0B801C6010E949E
:1029B0001A12F50126813781D8011496ED91FC9108
:1029C000D50115964C9166E0C601099581111CC090
:1029D00080E0DF91CF911F910F91FF90DF90CF901A
:1029E000BF90AF900895DB011496ED91FC9130E01B
:1029F00020E042E061E0C601099544E850E0B801FA
:102A0000C6010E942A1292CF40E0B801C6010E947E
:102A100022128CCF43E750E0B801C6010E942A126F
:102A200081E0D7CF48E650E0F7CF41E0C6010E94F1
:102A3000221240E0B801C6010E941A1241E8B80112
:102A4000C6010E9412124881B801C6010E941212EA
:102A500040E0B801C6010E942212E2CFE6E4FE1671
:102A600009F46CC0F7E4FF1609F46DC08BE3F812AB
:102A7000D7CF99818B8138E0390F813031F08330A5
:102A800011F0392F02C0392F985021E0D801139648
:102A90004C91491708F420E041E0391708F040E074
:102AA00091E0F8015281351708F490E0322F342B71
:102AB000932319F4242309F4B3CFFA80D12CC12C29
:102AC000843048F490E0FC01EE5EFE4FC080825FEF
:102AD0009E4FDC01DC90F7FE04C0BE01C8010E94DD
:102AE000CF1288818C0D888389818D0D8983FF0C9D
:102AF00091F796CFBE01C8010E94CF1291CFC801B5
:102B00000E94E110882309F463CFD8011696ED9155
:102B1000FC91179715968C918E0F9F2F911D1192F6
:102B20008E179F07E1F77CCF1882F8018281898395
:102B3000858181508A8383818B8372CFD8011596DA
:102B40008C9188836DCFF8018181FBCF3F924F92AA
:102B50005F926F927F928F929F92AF92BF92CF922D
:102B6000DF92EF92FF920F931F93CF93DF93EC01CD
:102B7000162FDCAC5BAC5C0124E0A20EB11CE98D2D
:102B8000FA8DC5010995982EE884F984C7010E9441
:102B90005C14082F888599850E945F14782E8824FC
:102BA0008A94013011F48FE0882E888599850E94DF
:102BB0005814082F888599850E945414C82E88853A
:102BC00099850E947514113670F0009761F0E80E37
:102BD000F91E01E6C116B8F41C8A1F8A188E1D8AD8
:102BE0001E8A80E05BC0888599850E947814113424
:102BF00030F0009721F0E80EF91E01E4EBCF81E1FF
:102C0000E80EF11CE7CFC01638F3872D90E0F701EE
:102C100024912F3F39F4FFEFEF1AFF0AC016E1F2BB
:102C20000F5FF5CF101368C0888599850E945C14EA
:102C300097012F5F3F4FF701882319F0823009F089
:102C400044C084918F8BF9012491288FF70133962A
:102C5000E491EC8BF7013496E491ED8BF701359616
:102C6000E491EE8BE114F10409F4BBCF88859985DA
:102C70000E945F14782ECF88388C8D89580E1D2DB8
:102C800013198E89181B190D032D2C2D412F652D1D
:102C9000C5010E949312811138C08C899BAD890FA8
:102CA0008BAF81E090E0DF91CF911F910F91FF906A
:102CB000EF90DF90CF90BF90AF909F908F907F90DC
:102CC0006F905F904F903F9008958491982F9F70E0
:102CD00092509E8B82958F708D8BF9012491822F5B
:102CE0008F70888F22952F702F8BF7013296E49189
:102CF000E295EF70EC8BB6CF3296E491E821E80FC5
:102D0000F92FF11DEE0EFF1E89CFE70CF11C07E035
:102D10000C0D069506950695310E4E01F0E28F0ECC
:102D2000911C602E712C131509F4B7CF452C670147
:102D300012C0F60184916E817F8148A219A31BA263
:102D40008AA394014BE3C5010E94E512FFEFCF1A5D
:102D5000DF0A28E0420E8C2D8E19801750F3E60C06
:102D6000F71C1F5FE0CF682F88E593E00C94A61551
:102D7000089590E080E00895FB0101900020E9F7BC
:102D80003197AF01461B570BDC01ED91FC9102809E
:102D9000F381E02D09948F929F92AF92BF92EF92B0
:102DA000FF920F931F93CF93DF93CDB7DEB7A19719
:102DB0000FB6F894DEBF0FBECDBF7C01FA01CB0188
:102DC00019A2223008F42AE08E010F5D1F4F822ED7
:102DD000912CB12CA12CBF01A50194010E94081FC8
:102DE000F901CA016A300CF5605DD8016E938D015E
:102DF000232B242B252B79F790E080E0109721F0EE
:102E0000BD01C7010E94BC16A1960FB6F894DEBFA3
:102E10000FBECDBFDF91CF911F910F91FF90EF902B
:102E2000BF90AF909F908F900895695CDECFCF9256
:102E3000DF92EF92FF92CF93DF936C01990FEE0830
:102E4000FF08F7FE19C08DE20E94B316EC0144277B
:102E50005527BA014C195D096E097F092AE088E5FA
:102E600093E00E94CB168C0F9D1FDF91CF91FF90B6
:102E7000EF90DF90CF9008952AE0B701A60188E592
:102E800093E0DF91CF91FF90EF90DF90CF900C9483
:102E9000CB16CF93DF93482F50E070E060E02AE03C
:102EA0008BEB92E00E94CB16EC0164E371E08BEBBC
:102EB00092E00E94BC168C0F9D1FDF91CF91089568
:102EC0000C94BC160C94FA1ECF93DF93C82F67E3C3
:102ED00071E08BEB92E00E9460178C2F0E944917E3
:102EE00085E0C89FE001112460919702CE0104960D
:102EF0000E94621760919C02CE0102960E946217A6
:102F000060919802CE010396DF91CF910C946217E5
:102F1000CF93DF93C82F6AE571E08BEB92E00E94BC
:102F200060178C2F0E94491785E0C89FE00111248B
:102F300060919A02CE010E94621760919902CE01BF
:102F400001960E9462171092AF02DF91CF9108950F
:102F50000C94F21E1F93CF93DF93C82F69E771E0A3
:102F60008BEB92E00E9460178C2F0E94491745E07E
:102F7000C49FE0011124CE010E94A817182FCE0192
:102F800001960E94A817912F9C0121503109283EDB
:102F9000334010F082E390E090939A02809399027C
:102FA000CE0104960E94A817853108F085E0809331
:102FB0009702CE0103960E94A81785310CF080E09D
:102FC00080939802CE0102960E94A817833008F0E1
:102FD00081E080939C02DF91CF911F9108951F9211
:102FE0000F920FB60F9211242F933F938F939F93BD
:102FF000AF93BF938091B1029091B202A091B302BE
:10300000B091B4023091B00223E0230F2D3758F570
:103010000196A11DB11D2093B0028093B10290933F
:10302000B202A093B302B093B4028091B502909122
:10303000B602A091B702B091B8020196A11DB11DD0
:103040008093B5029093B602A093B702B093B802F2
:10305000BF91AF919F918F913F912F910F900FBE94
:103060000F901F90189526E8230F0296A11DB11D01
:10307000D2CF1F920F920FB60F9211242F933F932E
:103080004F935F936F937F938F939F93AF93BF9370
:10309000EF93FF938BEB92E00E945210FF91EF9120
:1030A000BF91AF919F918F917F916F915F914F9160
:1030B0003F912F910F900FBE0F901F9018951F9268
:1030C0000F920FB60F9211242F938F939F93EF932C
:1030D000FF93E091CB02F091CC028081E091D1028C
:1030E000F091D20282FD1BC090818091D4028F5F4B
:1030F0008F732091D502821741F0E091D402F0E065
:10310000E554FD4F958F8093D402FF91EF919F91ED
:103110008F912F910F900FBE0F901F901895808167
:10312000F4CF1092BE021092BD0288EE93E0A0E0B0
:10313000B0E08093BF029093C002A093C102B0930D
:10314000C2028AE191E09093BC028093BB0285ECBD
:1031500090E09093C8028093C70284EC90E0909333
:10316000CA028093C90280EC90E09093CC028093D5
:10317000CB0281EC90E09093CE028093CD0282EC62
:1031800090E09093D0028093CF0286EC90E09093F1
:10319000D2028093D1021092D4021092D5021092E2
:1031A000D6021092D7028DE0809396038AE0809336
:1031B00098038CE08093970361E08AE00E94670F98
:1031C00061E0809196030E94670F60E08091970311
:1031D0000E94670F61E0809198030E94010F109296
:1031E0005B0310925A038CE291E090935903809311
:1031F0005803109293031092940310929503109227
:1032000061031092600310926303109262031092A4
:10321000650381E08093640382E2809366031092E9
:103220006B0310926A03EFE7F3E08DE893E02FEF72
:1032300021938E179F07E1F781E080937C0329E5B6
:103240003EE03093720320937103809373031092D6
:1032500074031092750380E48093760310927703D1
:1032600088E59EE090938E0380938D0388E091E043
:1032700090935F0380935E0310928A030E94E91289
:103280008CE291E0909359038093580308957894C9
:1032900084B5826084BD84B5816084BD85B582605B
:1032A00085BD85B5816085BD80916E00816080930C
:1032B0006E00109281008091810082608093810075
:1032C0008091810081608093810080918000816085
:1032D000809380008091B10084608093B1008091E0
:1032E000B00081608093B00080917A008460809308
:1032F0007A0080917A00826080937A0080917A00CF
:10330000816080937A0080917A00806880937A004F
:103310001092C10061E089E00E94670F61E080E1E6
:103320000E94670F61E081E10E94670F62E085E023
:103330000E94670F62E083E00E94670F62E086E010
:103340000E94670F62E087E00E94670F62E082E000
:103350000E94670FE091CB02F091CC0282E0808363
:10336000E091C702F091C8021082E091C902F09189
:10337000CA0280E180831092D302E091CF02F091E3
:10338000D00286E08083E091CD02F091CE02808170
:1033900080618083E091CD02F091CE0280818860CF
:1033A0008083E091CD02F091CE028081806880839D
:1033B000E091CD02F091CE0280818F7D808380E00C
:1033C0000E94AA1781E080937C0388EE93E090939B
:1033D000A00280939F020E94A30F4B015C0194EF17
:1033E000C92EDD24D394E12CF12C0E94A30F68197F
:1033F00079098A099B09683E734081059105A8F304
:1034000021E0C21AD108E108F10838EE830E33E05A
:10341000931EA11CB11CC114D104E104F10429F7CD
:10342000D4E0ED2ED1E0FD2E09E51EE083EBC82EA1
:1034300086E1D82EC3E2AC2EB12C8091AF02882356
:10344000B1F00E94C80F4090AB025090AC02609067
:10345000AD027090AE026419750986099709693842
:1034600073418105910518F080E00E9488170E9441
:10347000C80F4090A7025090A8026090A9027090D7
:10348000AA026419750986099709653F714081058B
:10349000910508F481C060E0809198030E94010FBB
:1034A000C5010197F1F70E942F0FC82FD0E0DC2F44
:1034B000CC270E942F0FC82B61E0809198030E94B7
:1034C000010F60E070E088EC92ECC2FD10C0A3E058
:1034D000D695C795AA95E1F7BE0190E080E00E94DD
:1034E000661F20E030E040E85EE30E94CC1F0E94AF
:1034F000301F2B017093A4026093A3020E94C80F97
:103500006093A7027093A8028093A9029093AA02E5
:1035100057FE0DC061E081E10E94010F81E08093C0
:10352000A50260E089E00E94010F60E08AC08090FF
:103530009802082C000C9908840C951C97FE02C078
:10354000912C812C9092A4028092A3028091A102DE
:103550009091A202881599050CF4C4019093A202DF
:103560008093A10280919F029091A00288169906F3
:103570000CF4C4019093A00280939F0260E081E16B
:103580000E94010F1092A50280919C028130D9F116
:1035900040F2823009F463C085E00E94D80E892B86
:1035A00009F009C28091A602811172C00E94C80F61
:1035B0004090AB025090AC026090AD027090AE02B1
:1035C00064197509860997096536710581059105A4
:1035D00008F475C0809196028A3008F089E08F5F08
:1035E000809396023091990220919A028A3009F0D4
:1035F00078C1832F922F8F3D23E0920714F08EED38
:1036000093E00A9677C1C0919902D0919A02C815A9
:10361000D90524F080919B02882341F08091970284
:103620009E01281B3109281539056CF061E089E0FD
:103630000E94010F10929B0261E0C815D9050CF0A1
:1036400074CF80E119C060E089E00E94010F81E041
:1036500080939B0261E080E10E94010FEDCF809199
:103660009B0281110CC08091990290919A02881658
:1036700099062CF461E089E00E94010F8DCF81E072
:1036800080939B0260E089E00E94010F61E0D9CF46
:10369000813009F041C10E94C80F409092025090C1
:1036A00093026090940270909502641975098609DE
:1036B0009709653F71408105910508F04BC18091E4
:1036C0009503811105C081E0809395030E94E91262
:1036D000C0915E03D0915F03E0918D03F0918E0362
:1036E00082E00995E0918D03F0918E0381E00995C8
:1036F00030E020E044E1BE018CE593E00E94E51259
:103700002FE833E047E1BE018CE593E00E94E5122B
:10371000E0918D03F0918E0380E009958091A602DF
:10372000882309F48FC2CCE0DDE17DE2972EEEE53F
:103730007E2EFDE38F2E0E94990E80916003909162
:1037400061038450914051F0F0926103E092600374
:103750000E945B0E10937203009371031092930307
:10376000C09394036DE871E088E593E00E946017D0
:103770008091A602813039F448E560E088E20E9439
:10378000FB1310927C0388E280939303C09394030D
:1037900080919C02813009F4F2C208F4E9C28230BF
:1037A00009F4F0C20E94990E10929303D0939403EF
:1037B00065EB71E088E593E00E9460178091A602B6
:1037C000823039F448E160E186E50E94FB131092F3
:1037D0007C0386E580939303D093940380919802B1
:1037E0006DEB71E08A3020F0873F34F06EEB71E0D2
:1037F00088E593E00E94601780919802082E000CE3
:10380000990B0E9417170E94990E80EB0E94B31625
:1038100060EC71E088E593E00E94601780919C0263
:103820008130D1F50E94990E1092930390929403E7
:1038300062EC71E088E593E00E9460178091A60237
:10384000833039F444E161E28AE50E94FB1310926F
:103850007C037092930390929403809197028A3034
:1038600030F46EEB71E088E593E00E9460174091C0
:10387000970250E070E060E02AE088E593E00E9463
:10388000CB160E94990E80EB0E94B31660EC71E09B
:1038900088E593E00E94601710929303809294034E
:1038A00080919E026EEC71E0853630F480919D022D
:1038B000853630F06DED71E088E593E00E94601789
:1038C0000E941A14811137CF80E090E0892B09F40F
:1038D000B4CD0E943E10882309F4ACCD0E940000B4
:1038E000A9CD832F922F883E33E0930714F087EE03
:1038F00093E0019690939A028093990281E08093DD
:10390000AF020E94C80F6093AB027093AC02809329
:10391000AD029093AE02D3CE823071F50E94C80FF3
:1039200040909202509093026090940270909502A1
:103930006419750986099709653F714081059105EC
:1039400008F4BDCE8091980284315CF48F5F80933F
:10395000980207C080919C02823018F48F5F809398
:103960009C020E94C80F609392027093930280930E
:10397000940290939502A3CE833009F0A0CE0E94CA
:10398000C80F409092025090930260909402709001
:1039900095026419750986099709653F714081058B
:1039A000910508F48CCE809197028431D0F68F5F18
:1039B00080939702D6CF83E00E94D80E892B09F01E
:1039C00090C08091A60281112BC00E94C80F409028
:1039D000AB025090AC026090AD027090AE026419E0
:1039E000750986099709653671058105910508F401
:1039F00066CE809196028A3008F089E08F5F8093CE
:103A000096023091990220919A028A3031F1832FE7
:103A1000922F1816190614F081E090E001976ACFF2
:103A2000813021F50E94C80F40909202509093027D
:103A3000609094027090950264197509860997093F
:103A4000653F71408105910508F439CE80919C0253
:103A5000882309F486CF815082CF832F922F8A301A
:103A6000910514F48AE090E00A9744CF8230D9F4AB
:103A70000E94C80F4090920250909302609094026E
:103A8000709095026419750986099709653F714020
:103A90008105910508F413CE809198028D3E0CF4B7
:103AA00060CF815054CF833009F009CE0E94C80FF7
:103AB0004090920250909302609094027090950210
:103AC0006419750986099709653F7140810591055B
:103AD00008F4F5CD80919702882309F442CF8150F4
:103AE00067CF86E00E94D80E892B39F187E00E94CB
:103AF000D80E892B09F44AC087E00E94D80E892B82
:103B000009F05AC082E00E94D80E892B09F46CC0DB
:103B100082E00E94D80E892B09F07CC083E00E94CD
:103B2000D80E892B09F4CBCD85E00E94D80E892BC5
:103B300009F4C5CD10929602C2CD0E94C80F4090E4
:103B400092025090930260909402709095026419D2
:103B5000750986099709653F71408105910530F225
:103B60009091A60281E0890F8093A602933040F4E1
:103B700090919C02913009F4F4CE833009F0F1CE9B
:103B80001092A60280E00E946417EBCE80919E0204
:103B9000843608F0B1CF91E0980F90939E0289305F
:103BA00008F48DCD81E00E94641781E00E9488179F
:103BB0008EE680939E0283CD80919E02882309F435
:103BC000A1CF853610F08150F4CF8B3018F01092D1
:103BD0009E0275CD81E00E94AA1780E00E946417C2
:103BE00080E00E948817F3CF80919D02843608F010
:103BF0008FCF91E0980F90939D02893008F45FCDAC
:103C000082E00E94641782E00E9488178EE680930B
:103C10009D0255CD80919D02882309F47FCF853682
:103C200010F08150F4CF8B3018F010929D0247CDE8
:103C300082E00E94AA1780E00E94641780E00E9440
:103C40008817F3CF2224239488E2382EDAE396E211
:103C5000992EC8E52AE0822E36E1732E42E2642EC8
:103C60005EE2552E6DE3462E8091600390916103D4
:103C7000835B964151F0D0926103C09260030E9431
:103C80005B0E10937203009371030E94990E0E94C1
:103C9000D2130E944F132092930330929403809189
:103CA000A502811106C08091A3029091A4020E94F6
:103CB000171780916003909161038450914051F0F7
:103CC000F0926103E09260030E945B0E1093720316
:103CD00000937103D09393039092940380EB0E941E
:103CE000B31660EC71E088E593E00E946017C09322
:103CF0009303809294036CEE71E088E593E00E9458
:103D00006017C0939303709294038091A1029091E5
:103D1000A2020E941717C09393036092940361EF6D
:103D200071E088E593E00E946017C093930350927E
:103D3000940380919F029091A0020E941717109205
:103D40009303409294038091A50266EF71E0811184
:103D500006C080919E028536C0F06EEC71E088E569
:103D600093E00E9460170E941A1481117DCFACCDA0
:103D700063E971E088E593E00E94601713CD6FE975
:103D800071E0F8CF6AEA71E0F5CF80919D026DEDA8
:103D900071E0853620F780919C02823001F5809198
:103DA0009B0263E072E08111DACF6DE072E088E59A
:103DB00093E00E9460178091990290919A02843654
:103DC000910534F46EEB71E088E593E00E94601792
:103DD0008091990290919A020E941717C4CF88236C
:103DE00011F2E3CFF999FECF92BD81BDF89A9927E0
:103DF00080B50895262FF999FECF1FBA92BD81BDD7
:103E000020BD0FB6F894FA9AF99A0FBE019608955C
:103E1000A1E21A2EAA1BBB1BFD010DC0AA1FBB1FCE
:103E2000EE1FFF1FA217B307E407F50720F0A21B40
:103E3000B30BE40BF50B661F771F881F991F1A94AD
:103E400069F760957095809590959B01AC01BD01D7
:103E5000CF010895EE0FFF1F0590F491E02D099416
:103E60000E94371F6894B1110C94C61F08950E94D8
:103E7000AB1F88F09F5798F0B92F9927B751B0F032
:103E8000E1F0660F771F881F991F1AF0BA95C9F7DE
:103E900014C0B13091F00E94C51FB1E008950C9498
:103EA000C51F672F782F8827B85F39F0B93FCCF34B
:103EB000869577956795B395D9F73EF4909580955B
:103EC000709561957F4F8F4F9F4F0895E89409C07B
:103ED00097FB3EF490958095709561957F4F8F4F3D
:103EE0009F4F9923A9F0F92F96E9BB279395F69553
:103EF000879577956795B795F111F8CFFAF4BB0FD1
:103F000011F460FF1BC06F5F7F4F8F4F9F4F16C034
:103F1000882311F096E911C0772321F09EE8872FBE
:103F2000762F05C0662371F096E8862F70E060E07A
:103F30002AF09A95660F771F881FDAF7880F9695F3
:103F4000879597F9089557FD9058440F551F59F0DC
:103F50005F3F71F04795880F97FB991F61F09F3F76
:103F600079F087950895121613061406551FF2CF9F
:103F70004695F1DF08C0161617061806991FF1CFEF
:103F800086957105610508940895E894BB27662716
:103F90007727CB0197F908950E94DF1F0C945020DA
:103FA0000E94422038F00E94492020F0952311F011
:103FB0000C9439200C943F2011240C94C61F0E94AD
:103FC000A31F70F3959FC1F3950F50E0551F629F9B
:103FD000F001729FBB27F00DB11D639FAA27F00D62
:103FE000B11DAA1F649F6627B00DA11D661F829F89
:103FF0002227B00DA11D621F739FB00DA11D621F6E
:10400000839FA00D611D221F749F3327A00D611D8A
:10401000231F849F600D211D822F762F6A2F11246C
:104020009F5750409AF0F1F088234AF0EE0FFF1F9F
:10403000BB1F661F771F881F91505040A9F79E3FF6
:10404000510580F00C9439200C94C61F5F3FE4F3B7
:10405000983ED4F3869577956795B795F795E7954C
:104060009F5FC1F7FE2B880F911D9695879597F955
:10407000089597F99F6780E870E060E008959FEFEA
:1040800080EC089500240A941616170618060906EF
:10409000089500240A9412161306140605060895BE
:1040A000092E0394000C11F4882352F0BB0F40F446
:1040B000BF2B11F460FF04C06F5F7F4F8F4F9F4F86
:0640C0000895F894FFCF03
:1040C60008400000008012027B140001B5110001B7
:1040D60000FF0100FF00000000007410D40F011063
:1040E600C11032101010241000000000A615D40FC5
:1040F600B916B8160D0A0053617665207365747497
:10410600696E677320746F20454550524F4D2C20C1
:104116007072657365744964200053617665207416
:10412600656D7020746F20454550524F4D2C2070A0
:104136007265736574496420005265616420454563
:1041460050524F4D2C20707265736574004D6F642C
:10415600653A00546865726D6F6D657465720054DA
:104166006865726D6F7374617400546865726D6F03
:1041760066757365004F66667365743A00202000A5
:104186004300487973746572657369733A005361C5
:1041960076656420707265736574203100536176AC
:1041A6006564207072657365742032004D61783ADB
:1041B600004D696E3A0053656E736F7220657272B8
:1041C6006F72004F76657274656D702E005365745C
:0241D6003A00AD
:00000001FF
